:020000040000FA
:10000000B8040020D9000000FF000000010100003A
:1000100000000000000000000000000000000000E0
:1000200000000000000000000000000003010000CC
:1000300000000000000000000501000007010000B2
:100040000901000009010000090100000901000088
:100050000901000009010000090100000901000078
:100060000901000009010000090100000901000068
:1000700071050000090100000901000009010000EC
:100080000901000009010000090100000901000048
:100090000901000009010000090100000901000038
:1000A0000901000009010000090100000901000028
:1000B0000901000009010000090100000901000018
:1000C0000448854600F048F8004800477D060000D7
:1000D000C046C046B80400200C480D4901600D49D7
:1000E00001600D4901600D4A0D4911600D4A0E492C
:1000F0001160002101600D4880470D480047FEE770
:10010000FEE7FEE7FEE7FEE7FEE700000001004035
:100110005900000016000000880000002400004084
:10012000A55A0000800200400100000039050000CF
:10013000C1000000D2B201E00270401C491EFBD297
:1001400070470022F6E710B513460A4604461946E2
:10015000FFF7F0FF204610BD064C0125064E05E0D6
:10016000E36807CC2B430C3C98471034B442F7D3D8
:10017000FFF7AAFF6007000080070000F0B5134CEE
:1001800001261BE0E0606160212801D11D68A560A7
:100190002661BFF36F8F2569ED07FCD125686F06D7
:1001A00003D525600020C043F0BD002802D02228DE
:1001B00008D001E0A5681D60091D1B1D9142E1D317
:1001C0000020F0BDFF31FF310231F6E700C00040F2
:1001D00038B50124A4036B46221D21460020FFF7F9
:1001E000CDFF002801DA204638BD6400F3E70000A7
:1001F000F8B50027144A0C4606460F606B46111FDF
:100200003846FFF7BBFF0098104DC00703D02868A1
:1002100030602760F8BD0C4A6B46121D111F00208C
:10022000FFF7ACFF00980103090B00912868814299
:1002300001D8C90506D00090306028680099401A9E
:100240002060F8BD0098F7E704003000240000208B
:10025000F3B583B0039E874F049D34680020786017
:100260003B4608330321844A0905083D08360193BB
:10027000FFF784FFB8680221009008400290A42C88
:1002800018D0002C78D0FF2C7DD07C48A62C04619F
:1002900014D001208007B12C13D0AB2C14D0AC2C7F
:1002A00012D0AD2C10D0AE2C26D0A02C28D0A32C50
:1002B00026D035E031687148C160E6E734203872F5
:1002C0005AE00068B860C0E0032141606C49AB2C83
:1002D00009D00868AC2C0AD04008400008606A4980
:1002E0006848C860FEE7086880088000F6E7800874
:1002F000800002221043F1E760490120C860A4E0B9
:100300005E488269C069824200D3024600231946D2
:100310002220FFF733FFA32C0BD058480121416165
:10032000A02C31D0C32C17D0A12C31D0FF2C3ED023
:1003300022E0524C0023E169206A0A182220FFF7CC
:100340001DFF009802210843B8600021019800F0C9
:100350005FF9012161610FE04848C1690160006AED
:10036000002872D00A1800232220FFF707FF7168C7
:100370004248083D08364160404C2069A0284AD0D8
:10038000C32848D061E012E03C4900200860EEE755
:100390003A4902984969084357D03046019900F01C
:1003A00037F936492031081FFFF722FF4DE0334C63
:1003B0002168A0680A1A2260616815460818606002
:1003C000324805400320000585423ED2294B29468C
:1003D00040330020FFF7D2FE00232A1D29462220A9
:1003E000FFF7CCFE234B2946403321202268FFF73C
:1003F000C5FE20880122A168C0055202C00D511A15
:10040000884222D3EA1DFF32FE320023111F222030
:10041000FFF7B4FE19E06068A84200D20546401B11
:100420006060216833464A192120FFF7A7FE29465C
:100430003046FFF786FE216833464A190020FFF751
:100440009DFE2068A5604019206000200146039BA6
:10045000049A03E05C5C201880B2491C9142F9DBED
:1004600038800649C868401C7860401CC86000207D
:1004700005B0F0BD34000020100030000C0000205A
:1004800000C000400400FA0500ED00E000FE0F008F
:100490000549064A00208B691B02FCD4135C0B60E3
:1004A000401C4028F7D3704700000740340000206C
:1004B00010B559211E48162388220160036002608E
:1004C0000468002CF9D01B48016804221143016024
:1004D000184940310A69D206FCD5026907231A433C
:1004E0000261026A1209120102620B6801221204FF
:1004F00013430B6081681143816041690722120632
:1005000091430322120689184161016A0F221202E7
:100510009143016201208007C16BFF2212049143C5
:10052000C163C16B332252041143C16310BD00008B
:10053000000100400002004010B559230A4816226D
:1005400088210360026001600468002CF9D007492B
:100550000B680722120593430B600B6813430B6073
:100560000021016010BD00000001004000020040B9
:1005700070B50F49CB69112003420E480DD00E4CC7
:100580008A69520409D44278402A06D20D6842781A
:10059000A618521C42703570F2E742780021402ABA
:1005A00003D0DA0600D5417070BD01220270FAE76F
:1005B0000000074030000020740200200E48016B4C
:1005C000C908C90001630321C1600C4981600C495D
:1005D0004162016A090A09024031016209490A6857
:1005E0008023120A12021A430A60074A5901116055
:1005F00006494160704700000000074030000300DA
:100600009F0100300CE400E000E100E01108000070
:10061000F3B5104C20681027384320600E4DA6011A
:1006200000232A4631462220FFF7A8FD2A463146FC
:100630002120009BFFF7A2FD0198002805D003466A
:1006400031462A460020FFF799FD2068B843206014
:10065000FCBD000000C000400800300002E008C8F7
:10066000121F08C1002AFAD170477047002001E02C
:1006700001C1121F002AFBD170470000FFF718FFCD
:10068000FFF79CFF0127BF0738680005000F01280E
:1006900004D038680005000F062802D13868002809
:1006A000FCD122484168042211434160204D286852
:1006B000092108432860FFF78BFD1E4908601E4989
:1006C0001E48FFF795FD1E481E4900681E4B484313
:1006D000586100249C6118690521084318611B4A70
:1006E0001B481C4E0178042902D23178012904D11B
:1006F0001168AE290ED0347004701969C903F1D5A0
:100700000320786028688008800028601349124818
:10071000C860FEE730780128FCD1347040210B48D6
:10072000FFF796FDFFF7B4FEF4E70000000200407B
:1007300000C00040240000202C00002028000020E1
:1007400004000020E093040000E000E074020020B8
:1007500031000020300000200400FA0500ED00E028
:100760008007000000000020340000005C0600004C
:10077000B407000034000020840400006C06000070
:1007800000D8B8056000000000D8B80500000000DF
:100790000000000000000000010000000000000058
:1007A0000000000000000000000000000000000049
:0407B0000000000045
:04000005000000D91E
:00000001FF
